{
  "_format": "hh-sol-artifact-1",
  "contractName": "NFTClone",
  "sourceName": "contracts/factory.sol",
  "abi": [
    {
      "inputs": [
        {
          "internalType": "address",
          "name": "_implementationContract",
          "type": "address"
        }
      ],
      "stateMutability": "nonpayable",
      "type": "constructor"
    },
    {
      "anonymous": false,
      "inputs": [
        {
          "indexed": true,
          "internalType": "address",
          "name": "_to",
          "type": "address"
        }
      ],
      "name": "NFTCreated",
      "type": "event"
    },
    {
      "anonymous": false,
      "inputs": [
        {
          "indexed": true,
          "internalType": "address",
          "name": "_from",
          "type": "address"
        },
        {
          "indexed": true,
          "internalType": "address",
          "name": "_to",
          "type": "address"
        },
        {
          "indexed": false,
          "internalType": "uint256",
          "name": "token_id",
          "type": "uint256"
        }
      ],
      "name": "Transfer",
      "type": "event"
    },
    {
      "inputs": [],
      "name": "admin",
      "outputs": [
        {
          "internalType": "address",
          "name": "",
          "type": "address"
        }
      ],
      "stateMutability": "view",
      "type": "function"
    },
    {
      "inputs": [
        {
          "internalType": "address",
          "name": "owner",
          "type": "address"
        }
      ],
      "name": "balanceOf",
      "outputs": [
        {
          "internalType": "uint256",
          "name": "",
          "type": "uint256"
        }
      ],
      "stateMutability": "view",
      "type": "function"
    },
    {
      "inputs": [
        {
          "internalType": "string",
          "name": "_name",
          "type": "string"
        },
        {
          "internalType": "string",
          "name": "_symbol",
          "type": "string"
        },
        {
          "internalType": "address",
          "name": "_owner",
          "type": "address"
        }
      ],
      "name": "createContract",
      "outputs": [
        {
          "internalType": "address",
          "name": "clone",
          "type": "address"
        }
      ],
      "stateMutability": "payable",
      "type": "function"
    },
    {
      "inputs": [],
      "name": "implementationContract",
      "outputs": [
        {
          "internalType": "address",
          "name": "",
          "type": "address"
        }
      ],
      "stateMutability": "view",
      "type": "function"
    },
    {
      "inputs": [
        {
          "internalType": "string",
          "name": "_NFTname",
          "type": "string"
        },
        {
          "internalType": "string",
          "name": "_NFTsymbol",
          "type": "string"
        },
        {
          "internalType": "address",
          "name": "_admin",
          "type": "address"
        }
      ],
      "name": "initialize",
      "outputs": [],
      "stateMutability": "nonpayable",
      "type": "function"
    },
    {
      "inputs": [],
      "name": "name",
      "outputs": [
        {
          "internalType": "string",
          "name": "",
          "type": "string"
        }
      ],
      "stateMutability": "view",
      "type": "function"
    },
    {
      "inputs": [
        {
          "internalType": "address",
          "name": "to",
          "type": "address"
        },
        {
          "internalType": "uint256",
          "name": "tokenId",
          "type": "uint256"
        },
        {
          "internalType": "string",
          "name": "uri",
          "type": "string"
        }
      ],
      "name": "safeMint",
      "outputs": [],
      "stateMutability": "nonpayable",
      "type": "function"
    },
    {
      "inputs": [],
      "name": "symbol",
      "outputs": [
        {
          "internalType": "string",
          "name": "",
          "type": "string"
        }
      ],
      "stateMutability": "view",
      "type": "function"
    },
    {
      "inputs": [
        {
          "internalType": "uint256",
          "name": "tokenId",
          "type": "uint256"
        }
      ],
      "name": "tokenURI",
      "outputs": [
        {
          "internalType": "string",
          "name": "",
          "type": "string"
        }
      ],
      "stateMutability": "view",
      "type": "function"
    }
  ],
  "bytecode": "0x60806040523480156200001157600080fd5b5060405162001fdf38038062001fdf8339818101604052810190620000379190620000e9565b80603b60006101000a81548173ffffffffffffffffffffffffffffffffffffffff021916908373ffffffffffffffffffffffffffffffffffffffff160217905550506200011b565b600080fd5b600073ffffffffffffffffffffffffffffffffffffffff82169050919050565b6000620000b18262000084565b9050919050565b620000c381620000a4565b8114620000cf57600080fd5b50565b600081519050620000e381620000b8565b92915050565b6000602082840312156200010257620001016200007f565b5b60006200011284828501620000d2565b91505092915050565b611eb4806200012b6000396000f3fe6080604052600436106100865760003560e01c806395d89b411161005957806395d89b411461014c57806399e7d05614610177578063c87b56dd146101a2578063cd279c7c146101df578063f851a4401461020857610086565b806306fdde031461008b578063077f224a146100b6578063588712dd146100df57806370a082311461010f575b600080fd5b34801561009757600080fd5b506100a0610233565b6040516100ad9190611133565b60405180910390f35b3480156100c257600080fd5b506100dd60048036038101906100d891906112fc565b6102c5565b005b6100f960048036038101906100f491906112fc565b610411565b6040516101069190611396565b60405180910390f35b34801561011b57600080fd5b50610136600480360381019061013191906113b1565b610504565b60405161014391906113f7565b60405180910390f35b34801561015857600080fd5b506101616105bb565b60405161016e9190611133565b60405180910390f35b34801561018357600080fd5b5061018c61064d565b6040516101999190611396565b60405180910390f35b3480156101ae57600080fd5b506101c960048036038101906101c4919061143e565b610673565b6040516101d69190611133565b60405180910390f35b3480156101eb57600080fd5b506102066004803603810190610201919061146b565b610785565b005b34801561021457600080fd5b5061021d61082e565b60405161022a9190611396565b60405180910390f35b60606034805461024290611509565b80601f016020809104026020016040519081016040528092919081815260200182805461026e90611509565b80156102bb5780601f10610290576101008083540402835291602001916102bb565b820191906000526020600020905b81548152906001019060200180831161029e57829003601f168201915b5050505050905090565b600060019054906101000a900460ff16806102e457506102e3610854565b5b806102fa575060008054906101000a900460ff16155b610339576040517f08c379a0000000000000000000000000000000000000000000000000000000008152600401610330906115ac565b60405180910390fd5b60008060019054906101000a900460ff161590508015610389576001600060016101000a81548160ff02191690831515021790555060016000806101000a81548160ff0219169083151502179055505b83603490816103989190611778565b5082603590816103a89190611778565b5081603360006101000a81548173ffffffffffffffffffffffffffffffffffffffff021916908373ffffffffffffffffffffffffffffffffffffffff160217905550801561040b5760008060016101000a81548160ff0219169083151502179055505b50505050565b60008061043f603b60009054906101000a900473ffffffffffffffffffffffffffffffffffffffff1661086b565b90508073ffffffffffffffffffffffffffffffffffffffff1663077f224a8686866040518463ffffffff1660e01b815260040161047e9392919061184a565b600060405180830381600087803b15801561049857600080fd5b505af11580156104ac573d6000803e3d6000fd5b505050506104b981610925565b8073ffffffffffffffffffffffffffffffffffffffff167f3754da1a98214dd62255f52efe5c8d68ba410e5c19339cc7883a5fba3df0adf260405160405180910390a2509392505050565b60008073ffffffffffffffffffffffffffffffffffffffff168273ffffffffffffffffffffffffffffffffffffffff1603610574576040517f08c379a000000000000000000000000000000000000000000000000000000000815260040161056b90611901565b60405180910390fd5b603760008373ffffffffffffffffffffffffffffffffffffffff1673ffffffffffffffffffffffffffffffffffffffff168152602001908152602001600020549050919050565b6060603580546105ca90611509565b80601f01602080910402602001604051908101604052809291908181526020018280546105f690611509565b80156106435780601f1061061857610100808354040283529160200191610643565b820191906000526020600020905b81548152906001019060200180831161062657829003601f168201915b5050505050905090565b603b60009054906101000a900473ffffffffffffffffffffffffffffffffffffffff1681565b606061067e826109be565b6000603a6000848152602001908152602001600020805461069e90611509565b80601f01602080910402602001604051908101604052809291908181526020018280546106ca90611509565b80156107175780601f106106ec57610100808354040283529160200191610717565b820191906000526020600020905b8154815290600101906020018083116106fa57829003601f168201915b505050505090506000610728610a09565b9050600081510361073d578192505050610780565b60008251111561077257808260405160200161075a92919061195d565b60405160208183030381529060405292505050610780565b61077b84610673565b925050505b919050565b3373ffffffffffffffffffffffffffffffffffffffff16603360009054906101000a900473ffffffffffffffffffffffffffffffffffffffff1673ffffffffffffffffffffffffffffffffffffffff1614610815576040517f08c379a000000000000000000000000000000000000000000000000000000000815260040161080c906119cd565b60405180910390fd5b61081f8383610a20565b6108298282610a3e565b505050565b603360009054906101000a900473ffffffffffffffffffffffffffffffffffffffff1681565b6000803090506000813b9050600081149250505090565b6000763d602d80600a3d3981f3363d3d373d3d3d363d730000008260601b60e81c176000526e5af43d82803e903d91602b57fd5bf38260781b17602052603760096000f09050600073ffffffffffffffffffffffffffffffffffffffff168173ffffffffffffffffffffffffffffffffffffffff1603610920576040517f08c379a000000000000000000000000000000000000000000000000000000000815260040161091790611a39565b60405180910390fd5b919050565b6109bb816040516024016109399190611396565b6040516020818303038152906040527f2c2ecbc2000000000000000000000000000000000000000000000000000000007bffffffffffffffffffffffffffffffffffffffffffffffffffffffff19166020820180517bffffffffffffffffffffffffffffffffffffffffffffffffffffffff8381831617835250505050610aab565b50565b6109c781610ad4565b610a06576040517f08c379a00000000000000000000000000000000000000000000000000000000081526004016109fd90611aa5565b60405180910390fd5b50565b606060405180602001604052806000815250905090565b610a3a828260405180602001604052806000815250610b15565b5050565b610a4782610ad4565b610a86576040517f08c379a0000000000000000000000000000000000000000000000000000000008152600401610a7d90611b37565b60405180910390fd5b80603a60008481526020019081526020016000209081610aa69190611778565b505050565b60008151905060006a636f6e736f6c652e6c6f679050602083016000808483855afa5050505050565b60008073ffffffffffffffffffffffffffffffffffffffff16610af683610b70565b73ffffffffffffffffffffffffffffffffffffffff1614159050919050565b610b1f8383610bad565b610b2c6000848484610dd4565b610b6b576040517f08c379a0000000000000000000000000000000000000000000000000000000008152600401610b6290611bc9565b60405180910390fd5b505050565b60006036600083815260200190815260200160002060009054906101000a900473ffffffffffffffffffffffffffffffffffffffff169050919050565b600073ffffffffffffffffffffffffffffffffffffffff168273ffffffffffffffffffffffffffffffffffffffff1603610c1c576040517f08c379a0000000000000000000000000000000000000000000000000000000008152600401610c1390611c35565b60405180910390fd5b610c2581610ad4565b15610c65576040517f08c379a0000000000000000000000000000000000000000000000000000000008152600401610c5c90611ca1565b60405180910390fd5b610c73600083836001610f54565b610c7c81610ad4565b15610cbc576040517f08c379a0000000000000000000000000000000000000000000000000000000008152600401610cb390611ca1565b60405180910390fd5b6001603760008473ffffffffffffffffffffffffffffffffffffffff1673ffffffffffffffffffffffffffffffffffffffff16815260200190815260200160002060008282540192505081905550816036600083815260200190815260200160002060006101000a81548173ffffffffffffffffffffffffffffffffffffffff021916908373ffffffffffffffffffffffffffffffffffffffff1602179055508173ffffffffffffffffffffffffffffffffffffffff16600073ffffffffffffffffffffffffffffffffffffffff167fddf252ad1be2c89b69c2b068fc378daa952ba7f163c4a11628f55a4df523b3ef83604051610dba91906113f7565b60405180910390a3610dd060008383600161107a565b5050565b6000610df58473ffffffffffffffffffffffffffffffffffffffff16611080565b15610f47578373ffffffffffffffffffffffffffffffffffffffff1663150b7a02338786866040518563ffffffff1660e01b8152600401610e399493929190611d16565b6020604051808303816000875af1925050508015610e7557506040513d601f19601f82011682018060405250810190610e729190611dba565b60015b610ef7573d8060008114610ea5576040519150601f19603f3d011682016040523d82523d6000602084013e610eaa565b606091505b506000815103610eef576040517f08c379a0000000000000000000000000000000000000000000000000000000008152600401610ee690611bc9565b60405180910390fd5b805181602001fd5b63150b7a0260e01b7bffffffffffffffffffffffffffffffffffffffffffffffffffffffff1916817bffffffffffffffffffffffffffffffffffffffffffffffffffffffff191614915050610f4c565b600190505b949350505050565b600181111561107457600073ffffffffffffffffffffffffffffffffffffffff168473ffffffffffffffffffffffffffffffffffffffff1614610fe85780603760008673ffffffffffffffffffffffffffffffffffffffff1673ffffffffffffffffffffffffffffffffffffffff1681526020019081526020016000206000828254610fe09190611e16565b925050819055505b600073ffffffffffffffffffffffffffffffffffffffff168373ffffffffffffffffffffffffffffffffffffffff16146110735780603760008573ffffffffffffffffffffffffffffffffffffffff1673ffffffffffffffffffffffffffffffffffffffff168152602001908152602001600020600082825461106b9190611e4a565b925050819055505b5b50505050565b50505050565b6000808273ffffffffffffffffffffffffffffffffffffffff163b119050919050565b600081519050919050565b600082825260208201905092915050565b60005b838110156110dd5780820151818401526020810190506110c2565b60008484015250505050565b6000601f19601f8301169050919050565b6000611105826110a3565b61110f81856110ae565b935061111f8185602086016110bf565b611128816110e9565b840191505092915050565b6000602082019050818103600083015261114d81846110fa565b905092915050565b6000604051905090565b600080fd5b600080fd5b600080fd5b600080fd5b7f4e487b7100000000000000000000000000000000000000000000000000000000600052604160045260246000fd5b6111ab826110e9565b810181811067ffffffffffffffff821117156111ca576111c9611173565b5b80604052505050565b60006111dd611155565b90506111e982826111a2565b919050565b600067ffffffffffffffff82111561120957611208611173565b5b611212826110e9565b9050602081019050919050565b82818337600083830152505050565b600061124161123c846111ee565b6111d3565b90508281526020810184848401111561125d5761125c61116e565b5b61126884828561121f565b509392505050565b600082601f83011261128557611284611169565b5b813561129584826020860161122e565b91505092915050565b600073ffffffffffffffffffffffffffffffffffffffff82169050919050565b60006112c98261129e565b9050919050565b6112d9816112be565b81146112e457600080fd5b50565b6000813590506112f6816112d0565b92915050565b6000806000606084860312156113155761131461115f565b5b600084013567ffffffffffffffff81111561133357611332611164565b5b61133f86828701611270565b935050602084013567ffffffffffffffff8111156113605761135f611164565b5b61136c86828701611270565b925050604061137d868287016112e7565b9150509250925092565b611390816112be565b82525050565b60006020820190506113ab6000830184611387565b92915050565b6000602082840312156113c7576113c661115f565b5b60006113d5848285016112e7565b91505092915050565b6000819050919050565b6113f1816113de565b82525050565b600060208201905061140c60008301846113e8565b92915050565b61141b816113de565b811461142657600080fd5b50565b60008135905061143881611412565b92915050565b6000602082840312156114545761145361115f565b5b600061146284828501611429565b91505092915050565b6000806000606084860312156114845761148361115f565b5b6000611492868287016112e7565b93505060206114a386828701611429565b925050604084013567ffffffffffffffff8111156114c4576114c3611164565b5b6114d086828701611270565b9150509250925092565b7f4e487b7100000000000000000000000000000000000000000000000000000000600052602260045260246000fd5b6000600282049050600182168061152157607f821691505b602082108103611534576115336114da565b5b50919050565b7f436f6e747261637420696e7374616e63652068617320616c726561647920626560008201527f656e20696e697469616c697a6564000000000000000000000000000000000000602082015250565b6000611596602e836110ae565b91506115a18261153a565b604082019050919050565b600060208201905081810360008301526115c581611589565b9050919050565b60008190508160005260206000209050919050565b60006020601f8301049050919050565b600082821b905092915050565b60006008830261162e7fffffffffffffffffffffffffffffffffffffffffffffffffffffffffffffffff826115f1565b61163886836115f1565b95508019841693508086168417925050509392505050565b6000819050919050565b600061167561167061166b846113de565b611650565b6113de565b9050919050565b6000819050919050565b61168f8361165a565b6116a361169b8261167c565b8484546115fe565b825550505050565b600090565b6116b86116ab565b6116c3818484611686565b505050565b5b818110156116e7576116dc6000826116b0565b6001810190506116c9565b5050565b601f82111561172c576116fd816115cc565b611706846115e1565b81016020851015611715578190505b611729611721856115e1565b8301826116c8565b50505b505050565b600082821c905092915050565b600061174f60001984600802611731565b1980831691505092915050565b6000611768838361173e565b9150826002028217905092915050565b611781826110a3565b67ffffffffffffffff81111561179a57611799611173565b5b6117a48254611509565b6117af8282856116eb565b600060209050601f8311600181146117e257600084156117d0578287015190505b6117da858261175c565b865550611842565b601f1984166117f0866115cc565b60005b82811015611818578489015182556001820191506020850194506020810190506117f3565b868310156118355784890151611831601f89168261173e565b8355505b6001600288020188555050505b505050505050565b6000606082019050818103600083015261186481866110fa565b9050818103602083015261187881856110fa565b90506118876040830184611387565b949350505050565b7f4552433732313a2061646472657373207a65726f206973206e6f74206120766160008201527f6c6964206f776e65720000000000000000000000000000000000000000000000602082015250565b60006118eb6029836110ae565b91506118f68261188f565b604082019050919050565b6000602082019050818103600083015261191a816118de565b9050919050565b600081905092915050565b6000611937826110a3565b6119418185611921565b93506119518185602086016110bf565b80840191505092915050565b6000611969828561192c565b9150611975828461192c565b91508190509392505050565b7f6e6f74207265616c206f776e6572000000000000000000000000000000000000600082015250565b60006119b7600e836110ae565b91506119c282611981565b602082019050919050565b600060208201905081810360008301526119e6816119aa565b9050919050565b7f455243313136373a20637265617465206661696c656400000000000000000000600082015250565b6000611a236016836110ae565b9150611a2e826119ed565b602082019050919050565b60006020820190508181036000830152611a5281611a16565b9050919050565b7f4552433732313a20696e76616c696420746f6b656e2049440000000000000000600082015250565b6000611a8f6018836110ae565b9150611a9a82611a59565b602082019050919050565b60006020820190508181036000830152611abe81611a82565b9050919050565b7f45524337323155524953746f726167653a2055524920736574206f66206e6f6e60008201527f6578697374656e7420746f6b656e000000000000000000000000000000000000602082015250565b6000611b21602e836110ae565b9150611b2c82611ac5565b604082019050919050565b60006020820190508181036000830152611b5081611b14565b9050919050565b7f4552433732313a207472616e7366657220746f206e6f6e20455243373231526560008201527f63656976657220696d706c656d656e7465720000000000000000000000000000602082015250565b6000611bb36032836110ae565b9150611bbe82611b57565b604082019050919050565b60006020820190508181036000830152611be281611ba6565b9050919050565b7f4552433732313a206d696e7420746f20746865207a65726f2061646472657373600082015250565b6000611c1f6020836110ae565b9150611c2a82611be9565b602082019050919050565b60006020820190508181036000830152611c4e81611c12565b9050919050565b7f4552433732313a20746f6b656e20616c7265616479206d696e74656400000000600082015250565b6000611c8b601c836110ae565b9150611c9682611c55565b602082019050919050565b60006020820190508181036000830152611cba81611c7e565b9050919050565b600081519050919050565b600082825260208201905092915050565b6000611ce882611cc1565b611cf28185611ccc565b9350611d028185602086016110bf565b611d0b816110e9565b840191505092915050565b6000608082019050611d2b6000830187611387565b611d386020830186611387565b611d4560408301856113e8565b8181036060830152611d578184611cdd565b905095945050505050565b60007fffffffff0000000000000000000000000000000000000000000000000000000082169050919050565b611d9781611d62565b8114611da257600080fd5b50565b600081519050611db481611d8e565b92915050565b600060208284031215611dd057611dcf61115f565b5b6000611dde84828501611da5565b91505092915050565b7f4e487b7100000000000000000000000000000000000000000000000000000000600052601160045260246000fd5b6000611e21826113de565b9150611e2c836113de565b9250828203905081811115611e4457611e43611de7565b5b92915050565b6000611e55826113de565b9150611e60836113de565b9250828201905080821115611e7857611e77611de7565b5b9291505056fea26469706673582212202eaa3b2b6e2e260e1512dfcc447c204bbed7bd7432f63b63d8f3e7517d93569c64736f6c63430008110033",
  "linkReferences": {},
  "deployedLinkReferences": {}
}