{
  "_format": "hh-sol-artifact-1",
  "contractName": "NFT",
  "sourceName": "contracts/NFT.sol",
  "abi": [
    {
      "anonymous": false,
      "inputs": [
        {
          "indexed": true,
          "internalType": "address",
          "name": "_from",
          "type": "address"
        },
        {
          "indexed": true,
          "internalType": "address",
          "name": "_to",
          "type": "address"
        },
        {
          "indexed": false,
          "internalType": "uint256",
          "name": "token_id",
          "type": "uint256"
        }
      ],
      "name": "Transfer",
      "type": "event"
    },
    {
      "inputs": [],
      "name": "admin",
      "outputs": [
        {
          "internalType": "address",
          "name": "",
          "type": "address"
        }
      ],
      "stateMutability": "view",
      "type": "function"
    },
    {
      "inputs": [
        {
          "internalType": "address",
          "name": "owner",
          "type": "address"
        }
      ],
      "name": "balanceOf",
      "outputs": [
        {
          "internalType": "uint256",
          "name": "",
          "type": "uint256"
        }
      ],
      "stateMutability": "view",
      "type": "function"
    },
    {
      "inputs": [
        {
          "internalType": "string",
          "name": "_NFTname",
          "type": "string"
        },
        {
          "internalType": "string",
          "name": "_NFTsymbol",
          "type": "string"
        },
        {
          "internalType": "address",
          "name": "_admin",
          "type": "address"
        }
      ],
      "name": "initialize",
      "outputs": [],
      "stateMutability": "nonpayable",
      "type": "function"
    },
    {
      "inputs": [],
      "name": "name",
      "outputs": [
        {
          "internalType": "string",
          "name": "",
          "type": "string"
        }
      ],
      "stateMutability": "view",
      "type": "function"
    },
    {
      "inputs": [
        {
          "internalType": "address",
          "name": "to",
          "type": "address"
        },
        {
          "internalType": "uint256",
          "name": "tokenId",
          "type": "uint256"
        },
        {
          "internalType": "string",
          "name": "uri",
          "type": "string"
        }
      ],
      "name": "safeMint",
      "outputs": [],
      "stateMutability": "nonpayable",
      "type": "function"
    },
    {
      "inputs": [],
      "name": "symbol",
      "outputs": [
        {
          "internalType": "string",
          "name": "",
          "type": "string"
        }
      ],
      "stateMutability": "view",
      "type": "function"
    },
    {
      "inputs": [
        {
          "internalType": "uint256",
          "name": "tokenId",
          "type": "uint256"
        }
      ],
      "name": "tokenURI",
      "outputs": [
        {
          "internalType": "string",
          "name": "",
          "type": "string"
        }
      ],
      "stateMutability": "view",
      "type": "function"
    }
  ],
  "bytecode": "0x608060405234801561001057600080fd5b50611aaf806100206000396000f3fe608060405234801561001057600080fd5b506004361061007d5760003560e01c806395d89b411161005b57806395d89b41146100ec578063c87b56dd1461010a578063cd279c7c1461013a578063f851a440146101565761007d565b806306fdde0314610082578063077f224a146100a057806370a08231146100bc575b600080fd5b61008a610174565b6040516100979190610ddf565b60405180910390f35b6100ba60048036038101906100b59190610fa8565b610206565b005b6100d660048036038101906100d19190611033565b610352565b6040516100e39190611079565b60405180910390f35b6100f4610409565b6040516101019190610ddf565b60405180910390f35b610124600480360381019061011f91906110c0565b61049b565b6040516101319190610ddf565b60405180910390f35b610154600480360381019061014f91906110ed565b6105ad565b005b61015e610656565b60405161016b919061116b565b60405180910390f35b606060348054610183906111b5565b80601f01602080910402602001604051908101604052809291908181526020018280546101af906111b5565b80156101fc5780601f106101d1576101008083540402835291602001916101fc565b820191906000526020600020905b8154815290600101906020018083116101df57829003601f168201915b5050505050905090565b600060019054906101000a900460ff1680610225575061022461067c565b5b8061023b575060008054906101000a900460ff16155b61027a576040517f08c379a000000000000000000000000000000000000000000000000000000000815260040161027190611258565b60405180910390fd5b60008060019054906101000a900460ff1615905080156102ca576001600060016101000a81548160ff02191690831515021790555060016000806101000a81548160ff0219169083151502179055505b83603490816102d99190611424565b5082603590816102e99190611424565b5081603360006101000a81548173ffffffffffffffffffffffffffffffffffffffff021916908373ffffffffffffffffffffffffffffffffffffffff160217905550801561034c5760008060016101000a81548160ff0219169083151502179055505b50505050565b60008073ffffffffffffffffffffffffffffffffffffffff168273ffffffffffffffffffffffffffffffffffffffff16036103c2576040517f08c379a00000000000000000000000000000000000000000000000000000000081526004016103b990611568565b60405180910390fd5b603760008373ffffffffffffffffffffffffffffffffffffffff1673ffffffffffffffffffffffffffffffffffffffff168152602001908152602001600020549050919050565b606060358054610418906111b5565b80601f0160208091040260200160405190810160405280929190818152602001828054610444906111b5565b80156104915780601f1061046657610100808354040283529160200191610491565b820191906000526020600020905b81548152906001019060200180831161047457829003601f168201915b5050505050905090565b60606104a682610693565b6000603a600084815260200190815260200160002080546104c6906111b5565b80601f01602080910402602001604051908101604052809291908181526020018280546104f2906111b5565b801561053f5780601f106105145761010080835404028352916020019161053f565b820191906000526020600020905b81548152906001019060200180831161052257829003601f168201915b5050505050905060006105506106de565b905060008151036105655781925050506105a8565b60008251111561059a5780826040516020016105829291906115c4565b604051602081830303815290604052925050506105a8565b6105a38461049b565b925050505b919050565b3373ffffffffffffffffffffffffffffffffffffffff16603360009054906101000a900473ffffffffffffffffffffffffffffffffffffffff1673ffffffffffffffffffffffffffffffffffffffff161461063d576040517f08c379a000000000000000000000000000000000000000000000000000000000815260040161063490611634565b60405180910390fd5b61064783836106f5565b6106518282610713565b505050565b603360009054906101000a900473ffffffffffffffffffffffffffffffffffffffff1681565b6000803090506000813b9050600081149250505090565b61069c81610780565b6106db576040517f08c379a00000000000000000000000000000000000000000000000000000000081526004016106d2906116a0565b60405180910390fd5b50565b606060405180602001604052806000815250905090565b61070f8282604051806020016040528060008152506107c1565b5050565b61071c82610780565b61075b576040517f08c379a000000000000000000000000000000000000000000000000000000000815260040161075290611732565b60405180910390fd5b80603a6000848152602001908152602001600020908161077b9190611424565b505050565b60008073ffffffffffffffffffffffffffffffffffffffff166107a28361081c565b73ffffffffffffffffffffffffffffffffffffffff1614159050919050565b6107cb8383610859565b6107d86000848484610a80565b610817576040517f08c379a000000000000000000000000000000000000000000000000000000000815260040161080e906117c4565b60405180910390fd5b505050565b60006036600083815260200190815260200160002060009054906101000a900473ffffffffffffffffffffffffffffffffffffffff169050919050565b600073ffffffffffffffffffffffffffffffffffffffff168273ffffffffffffffffffffffffffffffffffffffff16036108c8576040517f08c379a00000000000000000000000000000000000000000000000000000000081526004016108bf90611830565b60405180910390fd5b6108d181610780565b15610911576040517f08c379a00000000000000000000000000000000000000000000000000000000081526004016109089061189c565b60405180910390fd5b61091f600083836001610c00565b61092881610780565b15610968576040517f08c379a000000000000000000000000000000000000000000000000000000000815260040161095f9061189c565b60405180910390fd5b6001603760008473ffffffffffffffffffffffffffffffffffffffff1673ffffffffffffffffffffffffffffffffffffffff16815260200190815260200160002060008282540192505081905550816036600083815260200190815260200160002060006101000a81548173ffffffffffffffffffffffffffffffffffffffff021916908373ffffffffffffffffffffffffffffffffffffffff1602179055508173ffffffffffffffffffffffffffffffffffffffff16600073ffffffffffffffffffffffffffffffffffffffff167fddf252ad1be2c89b69c2b068fc378daa952ba7f163c4a11628f55a4df523b3ef83604051610a669190611079565b60405180910390a3610a7c600083836001610d26565b5050565b6000610aa18473ffffffffffffffffffffffffffffffffffffffff16610d2c565b15610bf3578373ffffffffffffffffffffffffffffffffffffffff1663150b7a02338786866040518563ffffffff1660e01b8152600401610ae59493929190611911565b6020604051808303816000875af1925050508015610b2157506040513d601f19601f82011682018060405250810190610b1e91906119b5565b60015b610ba3573d8060008114610b51576040519150601f19603f3d011682016040523d82523d6000602084013e610b56565b606091505b506000815103610b9b576040517f08c379a0000000000000000000000000000000000000000000000000000000008152600401610b92906117c4565b60405180910390fd5b805181602001fd5b63150b7a0260e01b7bffffffffffffffffffffffffffffffffffffffffffffffffffffffff1916817bffffffffffffffffffffffffffffffffffffffffffffffffffffffff191614915050610bf8565b600190505b949350505050565b6001811115610d2057600073ffffffffffffffffffffffffffffffffffffffff168473ffffffffffffffffffffffffffffffffffffffff1614610c945780603760008673ffffffffffffffffffffffffffffffffffffffff1673ffffffffffffffffffffffffffffffffffffffff1681526020019081526020016000206000828254610c8c9190611a11565b925050819055505b600073ffffffffffffffffffffffffffffffffffffffff168373ffffffffffffffffffffffffffffffffffffffff1614610d1f5780603760008573ffffffffffffffffffffffffffffffffffffffff1673ffffffffffffffffffffffffffffffffffffffff1681526020019081526020016000206000828254610d179190611a45565b925050819055505b5b50505050565b50505050565b6000808273ffffffffffffffffffffffffffffffffffffffff163b119050919050565b600081519050919050565b600082825260208201905092915050565b60005b83811015610d89578082015181840152602081019050610d6e565b60008484015250505050565b6000601f19601f8301169050919050565b6000610db182610d4f565b610dbb8185610d5a565b9350610dcb818560208601610d6b565b610dd481610d95565b840191505092915050565b60006020820190508181036000830152610df98184610da6565b905092915050565b6000604051905090565b600080fd5b600080fd5b600080fd5b600080fd5b7f4e487b7100000000000000000000000000000000000000000000000000000000600052604160045260246000fd5b610e5782610d95565b810181811067ffffffffffffffff82111715610e7657610e75610e1f565b5b80604052505050565b6000610e89610e01565b9050610e958282610e4e565b919050565b600067ffffffffffffffff821115610eb557610eb4610e1f565b5b610ebe82610d95565b9050602081019050919050565b82818337600083830152505050565b6000610eed610ee884610e9a565b610e7f565b905082815260208101848484011115610f0957610f08610e1a565b5b610f14848285610ecb565b509392505050565b600082601f830112610f3157610f30610e15565b5b8135610f41848260208601610eda565b91505092915050565b600073ffffffffffffffffffffffffffffffffffffffff82169050919050565b6000610f7582610f4a565b9050919050565b610f8581610f6a565b8114610f9057600080fd5b50565b600081359050610fa281610f7c565b92915050565b600080600060608486031215610fc157610fc0610e0b565b5b600084013567ffffffffffffffff811115610fdf57610fde610e10565b5b610feb86828701610f1c565b935050602084013567ffffffffffffffff81111561100c5761100b610e10565b5b61101886828701610f1c565b925050604061102986828701610f93565b9150509250925092565b60006020828403121561104957611048610e0b565b5b600061105784828501610f93565b91505092915050565b6000819050919050565b61107381611060565b82525050565b600060208201905061108e600083018461106a565b92915050565b61109d81611060565b81146110a857600080fd5b50565b6000813590506110ba81611094565b92915050565b6000602082840312156110d6576110d5610e0b565b5b60006110e4848285016110ab565b91505092915050565b60008060006060848603121561110657611105610e0b565b5b600061111486828701610f93565b9350506020611125868287016110ab565b925050604084013567ffffffffffffffff81111561114657611145610e10565b5b61115286828701610f1c565b9150509250925092565b61116581610f6a565b82525050565b6000602082019050611180600083018461115c565b92915050565b7f4e487b7100000000000000000000000000000000000000000000000000000000600052602260045260246000fd5b600060028204905060018216806111cd57607f821691505b6020821081036111e0576111df611186565b5b50919050565b7f436f6e747261637420696e7374616e63652068617320616c726561647920626560008201527f656e20696e697469616c697a6564000000000000000000000000000000000000602082015250565b6000611242602e83610d5a565b915061124d826111e6565b604082019050919050565b6000602082019050818103600083015261127181611235565b9050919050565b60008190508160005260206000209050919050565b60006020601f8301049050919050565b600082821b905092915050565b6000600883026112da7fffffffffffffffffffffffffffffffffffffffffffffffffffffffffffffffff8261129d565b6112e4868361129d565b95508019841693508086168417925050509392505050565b6000819050919050565b600061132161131c61131784611060565b6112fc565b611060565b9050919050565b6000819050919050565b61133b83611306565b61134f61134782611328565b8484546112aa565b825550505050565b600090565b611364611357565b61136f818484611332565b505050565b5b818110156113935761138860008261135c565b600181019050611375565b5050565b601f8211156113d8576113a981611278565b6113b28461128d565b810160208510156113c1578190505b6113d56113cd8561128d565b830182611374565b50505b505050565b600082821c905092915050565b60006113fb600019846008026113dd565b1980831691505092915050565b600061141483836113ea565b9150826002028217905092915050565b61142d82610d4f565b67ffffffffffffffff81111561144657611445610e1f565b5b61145082546111b5565b61145b828285611397565b600060209050601f83116001811461148e576000841561147c578287015190505b6114868582611408565b8655506114ee565b601f19841661149c86611278565b60005b828110156114c45784890151825560018201915060208501945060208101905061149f565b868310156114e157848901516114dd601f8916826113ea565b8355505b6001600288020188555050505b505050505050565b7f4552433732313a2061646472657373207a65726f206973206e6f74206120766160008201527f6c6964206f776e65720000000000000000000000000000000000000000000000602082015250565b6000611552602983610d5a565b915061155d826114f6565b604082019050919050565b6000602082019050818103600083015261158181611545565b9050919050565b600081905092915050565b600061159e82610d4f565b6115a88185611588565b93506115b8818560208601610d6b565b80840191505092915050565b60006115d08285611593565b91506115dc8284611593565b91508190509392505050565b7f6e6f74207265616c206f776e6572000000000000000000000000000000000000600082015250565b600061161e600e83610d5a565b9150611629826115e8565b602082019050919050565b6000602082019050818103600083015261164d81611611565b9050919050565b7f4552433732313a20696e76616c696420746f6b656e2049440000000000000000600082015250565b600061168a601883610d5a565b915061169582611654565b602082019050919050565b600060208201905081810360008301526116b98161167d565b9050919050565b7f45524337323155524953746f726167653a2055524920736574206f66206e6f6e60008201527f6578697374656e7420746f6b656e000000000000000000000000000000000000602082015250565b600061171c602e83610d5a565b9150611727826116c0565b604082019050919050565b6000602082019050818103600083015261174b8161170f565b9050919050565b7f4552433732313a207472616e7366657220746f206e6f6e20455243373231526560008201527f63656976657220696d706c656d656e7465720000000000000000000000000000602082015250565b60006117ae603283610d5a565b91506117b982611752565b604082019050919050565b600060208201905081810360008301526117dd816117a1565b9050919050565b7f4552433732313a206d696e7420746f20746865207a65726f2061646472657373600082015250565b600061181a602083610d5a565b9150611825826117e4565b602082019050919050565b600060208201905081810360008301526118498161180d565b9050919050565b7f4552433732313a20746f6b656e20616c7265616479206d696e74656400000000600082015250565b6000611886601c83610d5a565b915061189182611850565b602082019050919050565b600060208201905081810360008301526118b581611879565b9050919050565b600081519050919050565b600082825260208201905092915050565b60006118e3826118bc565b6118ed81856118c7565b93506118fd818560208601610d6b565b61190681610d95565b840191505092915050565b6000608082019050611926600083018761115c565b611933602083018661115c565b611940604083018561106a565b818103606083015261195281846118d8565b905095945050505050565b60007fffffffff0000000000000000000000000000000000000000000000000000000082169050919050565b6119928161195d565b811461199d57600080fd5b50565b6000815190506119af81611989565b92915050565b6000602082840312156119cb576119ca610e0b565b5b60006119d9848285016119a0565b91505092915050565b7f4e487b7100000000000000000000000000000000000000000000000000000000600052601160045260246000fd5b6000611a1c82611060565b9150611a2783611060565b9250828203905081811115611a3f57611a3e6119e2565b5b92915050565b6000611a5082611060565b9150611a5b83611060565b9250828201905080821115611a7357611a726119e2565b5b9291505056fea2646970667358221220b837efed8258cae6bf0f5a32e60148b4fe6154c8045685afa26ad34145f0f66e64736f6c63430008110033",
  "linkReferences": {},
  "deployedLinkReferences": {}
}